:020000040800F2
:1000000010050020A101000867130008071300086D
:1000100065130008D9020008CD190008000000008F
:10002000000000000000000000000000151500089E
:10003000DB02000800000000691300081715000823
:10004000BB010008BB010008BB010008BB010008A0
:10005000BB010008BB010008BB010008BB01000890
:10006000BB010008BB010008BB010008BB01000880
:10007000BB010008BB010008BB010008BB01000870
:10008000BB010008BB010008BB010008BB01000860
:10009000BB010008BB010008BB010008BB01000850
:1000A000BB010008BB010008BB010008BB01000840
:1000B000BB0100080000000000000000BB010008B8
:1000C000BB010008BB010008BB010008BB01000820
:1000D000BB010008BB010008BB010008BB01000810
:1000E000BB010008BB010008000000000000000088
:1000F0000000000000000000000000000000000000
:1001000000000000BB01000800000000BB01000867
:100110000000000000000000BB010008BB01000857
:10012000BB010008BB010008BB010008BB010008BF
:10013000BB010008000000000000000000000000FB
:10014000BB010008BB010008BB0100080000000063
:10015000BB010008BB010008BB010008BB0100088F
:10016000BB010008BB010008BB0100080000000043
:10017000BB010008BB0100080000000000000000F7
:10018000BB010008BB010008BB010008DFF80CD070
:1001900000F090F8004800470D1A000810050020F4
:1001A0000648804706480047FEE7FEE7FEE7FEE711
:1001B000FEE7FEE7FEE7FEE7FEE7FEE77D15000847
:1001C0008D0100082DE9F05F0546002092469B4610
:1001D00088460646814640241BE02846414647465D
:1001E000224600F056F853465A46C01A914110D3A1
:1001F00011461846224600F03DF82D1A67EB01081B
:100200004F4622460120002100F034F817EB000988
:100210004E41201EA4F10104DFDC484631462A4647
:10022000434600F000B830BCBDE8C09F40EA01037F
:100230009B0703D009E008C9121F08C0042AFAD29C
:1002400003E011F8013B00F8013B521EF9D2704760
:10025000D2B201E000F8012B491EFBD27047002208
:10026000F6E710B513460A4604461946FFF7F0FFB5
:10027000204610BD202A04DB203A00FA02F10020BB
:1002800070479140C2F1200320FA03F319439040D4
:100290007047202A04DB203A21FA02F0002170473F
:1002A00021FA02F3D040C2F12002914008431946DE
:1002B00070470000064C074D06E0E06840F001037F
:1002C00094E8070098471034AC42F6D3FFF762FF7A
:1002D000CC1A0008EC1A0008FEE770472DE9F84F29
:1002E000DFF864B100234FF0010C4FF0030A4FF028
:1002F0000F090BF1040EA0E00CFA03F6324072D0A5
:100300004C68022C01D0122C0ED1DC0800EB8408C2
:10031000D8F820405D07EF0E09FA07F5AC430D69E8
:10032000BD402543C8F8205007685D0091F804805F
:100330000AFA05F408F00308A74308FA05F848EAA2
:100340000708C0F800804F68012F05D0022F03D0A6
:10035000112F01D0122F11D18768D1F80C80A7433B
:1003600008FA05F848EA0708C0F808804768B74364
:100370000E79C6F300169E403E434660C668A6430B
:100380008C68AC403443C4604C68E40054D52F4CB6
:10039000256E45F001052566246E23F0030504F063
:1003A000010400942A4C2E19B4689D072F0F09FAF6
:1003B00007F5AC43B0F1904F04D0264DA84203D1CD
:1003C000012512E0002510E0234DA84201D10225AD
:1003D0000BE0224DA84201D1032506E0204DA842A2
:1003E00002D1042501E027E00725BD402543B56083
:1003F000DBF800405D464E689443F60300D5144395
:100400002C60DEF8004075464E689443B60300D574
:1004100014432C600C4D08352C684E689443F6024A
:1004200000D514432C60084D0C352C684E6894435D
:10043000B60200D514432C605B1C0A6832FA03F440
:100440007FF45AAF00F00EB80004014000100240E3
:10045000000001400004004800080048000C00486B
:100460000010004818BCBDE8E08F0000014880681B
:100470007047000000000020024881684268114473
:10048000816070470000002010B50024032000F0B8
:1004900063F8002000F008F808B1012401E000F042
:1004A00025F8204610BD000070B50E4E054600240C
:1004B000706898B14FF47A71B1FBF0F00A4909689D
:1004C000B1FBF0F000F0B0FD40B9102D06D20022D3
:1004D0002946501E00F020F8356000E00124204637
:1004E00070BD0000000000200C000020094808B585
:1004F000016E41F001010166016E01F00101009100
:10050000816D41F080518165806D00F080500090D8
:1005100008BD000000100240F0B40E4B1B680C46F2
:10052000C3F30223C3F10705042D00D90425191DC7
:10053000072901D2002300E0DB1E012606FA05F19F
:10054000491E214099409E40761E16403143F0BC22
:1005500001F03DBA0CED00E0064900F00702086822
:100560004FF6FF03184040EA0220034A1043086098
:10057000704700000CED00E00000FA051649B0F5E8
:10058000007F0868C0F3412009D0022805D0086820
:1005900020F4C06040F480600860002070470128AB
:1005A000FBD0086820F4C06040F4007008600B487D
:1005B0003222006850430A4AB0FBF2F0401C00E0CF
:1005C000401E4A69520501D50028F9D14869400505
:1005D000E3D5032070470000007000400C000020AD
:1005E00040420F000248006800F4C06070470000FD
:1005F000007000402DE9F84F044600270088A84D00
:100600003E46000515D5606C60B1B0F5000F04D012
:10061000B0F5400F2BD001270AE0E86840F48030A5
:10062000E86024E00021201D00F0A0FE07001ED09D
:100630003E46206880033AD5A86D4FF00008C00000
:1006400009D4A86D40F08050A865A86D4FF001084E
:1006500000F080500090DFF84CA2DAF8001041F46E
:100660008071CAF80010FFF701FF814610E0D5F84D
:100670008800616C20F440000843C5F88800D8E782
:10068000FFF7F4FEA0EB0900022801D9032705E0DB
:10069000DAF80000C005F3D5002F7DD04FEA070639
:1006A000B8F1000F03D0A86D20F08050A865207825
:1006B000C00707D0D5F88800216A20F0030008435E
:1006C000C5F888002078800707D5D5F88800616ACA
:1006D00020F00C000843C5F888002078400707D5B3
:1006E000D5F88800A16A20F030000843C5F88800DA
:1006F0002078800607D5D5F88800E16A20F44060AC
:100700000843C5F888002088800507D5D5F88800FB
:10071000E16B20F440200843C5F88800208840059C
:1007200007D5D5F88800216C20F440100843C5F89F
:1007300088002078400607D5D5F88800216B20F482
:1007400040500843C5F888002078000607D5D5F842
:100750008800616B20F440400843C5F88800208879
:10076000C00507D5D5F88800A16B20F440300843B8
:10077000C5F8880020684FF0006700034FF08068DC
:1007800050D5D5F88800A16C20F040600843C5F82A
:100790008800A06CB84200E005E03BD1E86840F476
:1007A0008010E8603EE0D5F8900010F4407014D05E
:1007B000A16D814211D0D5F89000D5F8901020F4A9
:1007C000407041F48031C5F89010D5F8901021F4B4
:1007D0008031C5F89010C5F89000C00711D0FFF720
:1007E00045FE074641F2883907E000BFFFF73EFEAD
:1007F000C11B494501D9032652E7D5F8900080076F
:10080000F4D5D5F89000A16D20F440700843C5F8E8
:10081000900045E7404505D10121201D00F0A6FDCF
:1008200000B106462068400317D5D5F88800E16C72
:1008300020F040600843C5F88800E06CB84204D15D
:10084000E86840F48010E86007E0404505D10121E8
:10085000201D00F08BFD00B106462088400411D514
:10086000D5F88800216D20F040500843C5F8880075
:10087000206DB0F1805F05D10221201D00F076FDD2
:1008800000B106462088000406D555F8880F616D32
:1008900020F0804008432860304600F005B8000092
:1008A000001002400070004018BCBDE8E08F00005E
:1008B0002DE9F0470F46050058D0404E306800F053
:1008C0000700B84209D2306820F007003843306092
:1008D000306800F00700B84248D12878384CC0078B
:1008E0002CD06868032811D0022812D0216898B152
:1008F000490500293ADAA16821F003010143A1600A
:10090000FFF7B4FD804641F2883910E02168890183
:10091000EFE721688903ECE78907EAE7FFF7A6FD1F
:10092000A0EB0801494502D90320BDE8F087A06883
:10093000696800F00C00B0EB810FEFD128788007D8
:1009400005D5A068A96820F0F0000843A0603068D1
:1009500000F00700B8420BD9306820F00700384398
:100960003060306800F00700B84201D00120DCE7B9
:100970002878400705D5A068E96820F4E0600843BE
:10098000A0602878000706D5A068296920F4605087
:1009900040EAC100A06000F03FF8A168094AC1F335
:1009A0000311515C01F01F01C84007490860074866
:1009B0000068BDE8F047FFF777BD00000020024067
:1009C00000100240841A00080C00002000000020E3
:1009D0000548064900688968054AC1F30221515C4F
:1009E00001F01F01C84070470C00002000100240B9
:1009F000C41A00080548064900688968054AC1F319
:100A0000C221515C01F01F01C84070470C0000205A
:100A100000100240C41A000870B52549002318468A
:100A20008A68CC6812F00C0204F00306214C4FEAED
:100A3000640509D00C2A05D0042A32D0082A00D136
:100A4000284670BD012E10D10B681B0704D4D1F8C5
:100A50009430C3F3032302E00B68C3F30313164E71
:100A600056F82330DAB10C2AEBD1C86800F0030045
:100A7000022818D0032818D01846CA68CB68C2F3D9
:100A80000212C3F306234343521CB3FBF2F2C868BD
:100A9000C0F34160401C4000B2FBF0F070BD18464E
:100AA00070BD204670BD2046E7E72846E5E7000018
:100AB000001002400024F400941A00082DE9F843C5
:100AC00004006FD0FE4DA86800F00C06E86800F046
:100AD00003072078C00664D576B10C2E01D1012F12
:100AE0000AD0A069002828687AD040F00100286068
:100AF000FFF7BCFC80465DE02868800702D5A0694E
:100B00000028DED0216A2868000703D5286800F095
:100B1000F00004E0D5F89400F02202EA10108142BF
:100B200016D9084600F0B8FC00283BD1286840F0F0
:100B3000080028602868216A20F0F0000843286037
:100B40006868E16920F47F4040EA0120686016E0AF
:100B5000286840F0080028602868216A20F0F0002A
:100B6000084328606868E16920F47F4040EA01207A
:100B7000686026B9206A00F08FFC0028D5D1FFF705
:100B80004BFFA968CF4AC1F30311515C01F01F016B
:100B9000C840CD490860CD480068FFF785FC0028B3
:100BA0007ED12EE0CAE000BFFFF760FCA0EB08009A
:100BB000022876D828688007F6D5286840F0080013
:100BC00028602868216A20F0F000084328606868DF
:100BD000E16920F47F4040EA0120686011E0FFE70E
:100BE00020F001002860FFF741FC804606E000BFCE
:100BF000FFF73CFCA0EB08000228DAD82868800741
:100C0000F6D42078C00740D0082E18D00C2E01D181
:100C1000032F14D06068B0F5803F17D0B0F5A02F37
:100C2000286817D020F480302860286820F48020BD
:100C300028606068E0B1FFF719FC804614E028687E
:100C4000800322D56068002878D01EE0286840F430
:100C50008030EDE740F480202860F7E7FFF706FCDE
:100C6000A0EB08006428A4D828688003F6D50CE01F
:100C7000FFF7FCFB804605E0FFF7F8FBA0EB080060
:100C8000642896D828688003F6D4207880073BD55E
:100C9000042E11D00C2E01D1022F0DD0E06801E0FE
:100CA000B6E1FFE0002828681ED040F4807028607C
:100CB000FFF7DCFB07460CE0286840050CD5E06830
:100CC0000028C1D008E000BFFFF7D0FBC01B0228FE
:100CD00093D828684005F7D56868217C20F0F85043
:100CE00040EA016068600FE020F480702860FFF740
:100CF000BDFB074605E000BFFFF7B8FBC01B02289D
:100D0000B1D828684005F7D42078000729D5606954
:100D10000028D5F8940012D040F00100C5F89400E6
:100D2000FFF7A4FB074604E0FFF7A0FBC01B022867
:100D300099D8D5F894008007F6D512E02BE120F081
:100D40000100C5F89400FFF791FB074605E000BFDE
:100D5000FFF78CFBC01B022885D8D5F894008007CC
:100D6000F6D42078400766D5A86D0027C00008D4C7
:100D7000A86D40F08050A865A86D012700F0805054
:100D8000009053480168C90512D40168814641F4B6
:100D900080710160FFF76AFB804605E0FFF766FBA4
:100DA000A0EB080002287DD8D9F80000C005F5D5D1
:100DB000A068012816D00528D5F8900017D020F09B
:100DC0000100C5F89000D5F8900020F0040000BFA5
:100DD000C5F89000A06841F28839C0B1FFF746FB22
:100DE00080460FE0D5F8900040F00100F0E740F0B9
:100DF0000400C5F89000F5E7FFF738FBA0EB080109
:100E000049454FD8D5F890008007F5D50EE0FFF79B
:100E10002DFB804606E000BFFFF728FBA0EB080192
:100E200049453FD8D5F890008007F5D41FB1A86D8B
:100E300020F08050A8652078800628D5606A0028B8
:100E4000D5F8980012D040F00100C5F89800FFF7DF
:100E50000DFB074605E000BFFFF708FBC01B02289B
:100E600020D8D5F898008007F6D510E020F00100D2
:100E7000C5F89800FFF7FAFA074604E0FFF7F6FA1C
:100E8000C01B02280ED8D5F898008007F6D4A06AB7
:100E9000A8B1022824D00C2E7DD0286820F08070C4
:100EA000286000E0B3E02868000103D4E86820F07F
:100EB0000300E860E86807490840E8600CE09FE04C
:100EC00000100240841A00080C00002000000020DE
:100ED00000700040FFFFEEFEFFF7C8FA044699E0FD
:100EE000E868E26A00F00301914226D1216B00F02C
:100EF00070020901103991421FD1626B00F4FE416A
:100F0000B1EB022F19D194F8382000F07841B1EB01
:100F1000C26F12D1A18F00F4C00249084905A1F5A2
:100F20000011914209D194F8401000F0C0604908C6
:100F30004906A1F1007181424BD00C2E6FD0286878
:100F400040016CD4286820F080702860FFF78EFA8A
:100F5000064604E0FFF78AFA801B022857D8286863
:100F60008001F7D4F4E90B016FF00F0202EB0111DD
:100F70000843218A5204490802EB4151A26841EA20
:100F800002210843217D4FF07E42490802EB416176
:100F90000843217B00E042E040EAC160E968214A61
:100FA00011400843E860286840F080702860E868D5
:100FB00040F08070E860FFF759FA044605E000BF92
:100FC000FFF754FA001B022821D828688001F7D5C2
:100FD00023E02868800120D4286840F080702860D1
:100FE000E86840F08070E860FFF740FA044604E0EB
:100FF000FFF73CFA001B022809D828688001F7D5C2
:101000000BE000BFFFF732FA001B022802D90320D1
:10101000BDE8F88328688001F4D40020F8E70120B7
:10102000F6E700008C809D0110B5401EB0F1807F76
:1010300001D3012010BD4FF0E02460610F21601743
:1010400000F0C5FC0020A06107202061002010BD39
:1010500010B5040002D0606F10B107E0012010BD90
:10106000002084F87000204600F026F824206067F5
:101070002068016821F001010160204600F030FB8A
:101080000128ECD0606A10B1204600F099FA20687F
:10109000416821F4904141602068816821F02A0173
:1010A00081602068016841F0010101602046BDE8CF
:1010B000104000F0E9BA000070B586B00446142173
:1010C0006846FFF7CCF8214E25680021204802220F
:1010D00003230724B54219D1056E45F48045056602
:1010E000056E05F480450595C56C45F00105C564A0
:1010F000C06C02AD00F00100059085E81A005802AE
:10110000CDE9000269464FF090401AE0114EB54219
:1011100019D1856D45F480258565856D05F480259B
:101120000595C56C45F00405C564C06C02AD00F0C2
:101130000400059085E81A003020CDE900026946D8
:101140000548FFF7CBF806B070BD0000003801403D
:101150000010024000480040000800482DE9F84F08
:101160000446806F9A4616460D4620286BD1EDB195
:10117000E6B194F87000012865D0012084F8700071
:101180004FF00008C4F87C802220A067FFF76EF9BA
:10119000A4F858608146A4F85A60A0684FF48053C0
:1011A000FF21984208D122691AB11CE0012000F009
:1011B0004CB840F2FF1116E07F2290B1B0F1805F91
:1011C00014D0A4F85C8000BFB4F85C70984201D1E0
:1011D000206990B12E46002584F8708007F0FF0842
:1011E00025E0266936B9A4F85C10EDE7216909B15C
:1011F0003F21F8E7A4F85C20E6E70026ECE74B4641
:10120000002220212046CDF800A000F08DFB08B17F
:101210000320CCE72068808C8EB100EA080006F835
:10122000010B00BFB4F85A00401EA4F85A00B4F8ED
:101230005A000028E3D12020A0670020B7E73840FB
:1012400025F8020BEEE70220B1E718BCBDE8E08FFD
:101250002DE9F8430446406F1F4616460D462028E8
:101260004FD1CDB1C6B194F87000012849D001200A
:1012700084F870004FF00008C4F87C80212060677B
:10128000FFF7F4F8A4F850608146A4F85260A06813
:10129000B0F5805F03D004E00120BDE8F883206949
:1012A00028B12E465FF0000584F8708010E000261B
:1012B000FAE78021204600F037FBB8B9C6B116F82E
:1012C000010B21680885B4F85200401EA4F85200B2
:1012D000B4F852004B464FF0000200970028E8D1C6
:1012E0004FF04001204600F01FFB30B10320D4E74F
:1012F00035F8020BC0F30800E3E720206067002008
:10130000CBE70220C9E7FEE70948084901604FF42E
:10131000E1314160002181600C22C160C0E904120A
:101320008161C16101624162FFF792BE00380140F4
:10133000100000200A4809494FF4806201604FF410
:101340009651416000218160C0E903120C22C0E97E
:101350000521C16101624162FFF77ABE0048004089
:1013600090000020FEE77047704700002DE9F04133
:10137000444C05468846E0680026810728680DD061
:10138000E16801F00301814216D1A8B1E068696803
:10139000C0F30210401C88420ED120E0012804D086
:1013A000022805D0032807D108E02168890701E059
:1013B00021684905002907DB01265FE021688903D0
:1013C00002D421684903F5E7E1686A686FF00F030A
:1013D00021F0730103EB021211430143E160206825
:1013E00020F080602060FFF741F8074605E000BF6D
:1013F000FFF73CF8C01B022837D820680001F7D45B
:10140000B8F1000F18D0B8F1010F1DD0287D4FF0B2
:101410007E41400801EB4060A96840EA0120216953
:10142000194A114008432061206840F08060206024
:10143000FFF71CF807461AE0A868297B000240EA7B
:10144000C1602169114AECE7288A1149400801EB83
:101450004050A96840EA012021690E4AE1E700BF37
:10146000FFF704F8C01B022801D9032606E0206814
:101470000001F5D52069A969084320613046BDE81F
:10148000F081000000100240FF80FFF9FF80FF079D
:101490000000E0FFFF809FFFF8B51C4D06460024CA
:1014A000A86DC00002D5FFF79DF80DE0A86D40F0D3
:1014B0008050A865A86D00F080500090FFF792F86A
:1014C000A96D21F08051A965B0F5007F04D0802E70
:1014D00007D94FF003040AE0802E08D9A02E01D8C6
:1014E00004E001D1022402E0702E00D1012408485A
:1014F000016821F0070121430160006800F0070046
:10150000A04201D00120F8BD0020F8BD001002402B
:10151000002002407047FEF7AFBF10B5AEB04421C7
:1015200017A8FEF79CFE142128A8FEF798FE5C2160
:101530006846FEF794FE1020179001200024CDE9A4
:101540001D0460201F90219417A8FFF7B7FA0F2001
:10155000CDE928042A942B94002128A82C94FFF785
:10156000A7F905200A94009008946846FFF742F80E
:101570004FF40070FFF702F82EB010BD0D4801685F
:1015800041F4700101600C48016841F00101016003
:10159000002181600268094B1A4002608214C26017
:1015A000026822F48022026081610249C00380390E
:1015B0000860704788ED00E000100240FFFFF6EA87
:1015C00090F82410C90706D001684A68836A22F49B
:1015D00000321A434A6090F82410890706D5016842
:1015E0004A68C36A22F480321A434A6090F8241091
:1015F000490706D501684A68036B22F480221A4322
:101600004A6090F82410090706D501684A68436BC0
:1016100022F400421A434A6090F82410C90606D505
:1016200001688A68836B22F480521A438A6090F8BA
:101630002410890606D501688A68C36B22F400521B
:101640001A438A6090F82410490611D501684A6847
:10165000036C22F480121A434A60016CB1F5801FBA
:1016600006D101684A68436C22F4C0021A434A60FA
:1016700090F82410090606D501684A68806C22F4A7
:10168000002202434A607047F8B500260446C66748
:10169000FEF7ECFE0546206800686FF07E47000705
:1016A00008D52B4600224FF400112046009700F089
:1016B0003BF960B92068006840070AD52B46002234
:1016C0004FF480012046009700F02EF908B1032066
:1016D000F8BD20206067A06784F870600020F8BD26
:1016E0002DE9F0410446016880682369E5691843E3
:1016F000636900272B431843814A0B68814D2B40B7
:1017000003430B6020684168E36821F440511943AA
:1017100041602168A069914201D0236A18438B6817
:1017200023F4306303438B60774B216877489942F9
:101730000DD1D0F8880010F0030006D0012847D062
:10174000022843D0032830D144E001252EE0704B1D
:1017500099420BD1D0F8880010F00C0034D0042846
:1017600036D0082832D00C281FD133E0694B99427B
:101770000BD1D0F8880010F0300025D0102827D0E9
:10178000202823D0302810D124E091420DD1D0F868
:10179000880010F4406017D0B0F5806F18D0B0F515
:1017A000006F13D0B0F5406F14D010255A4B0026AF
:1017B0004FF40040914245D175B1022D0FD0042D58
:1017C0000FD0082D18D10FE00025EFE70225EDE737
:1017D0000425EBE70825E9E7FFF7FAF803E01846E8
:1017E00002E0FFF719F9A8B3626802EB42018142F7
:1017F00002D8B0EB023F01D901276EE0DFF81C816F
:101800005DB1022D0CD0042D13D0082DF4D1500859
:101810002905401846F1000105E0FFF7D9F80AE074
:1018200050083F49F5E70023FEF7CCFCA0F54071D6
:101830004FE0FFF7F1F86268010E03025008181834
:101840007141F0E7E1694FF6EF7881422ED1092D21
:10185000D2D200E041E0DFE805F006091F052205CD
:1018600005052500C8E7FFF7B3F801E0FFF7C2F868
:101870004100606801EB5001B1FBF0F080B2A0F1D3
:1018800010014145B8D84FF6F0710140C0F3420055
:1018900001432068C16020E022496068EAE7FFF761
:1018A000BBF8E5E74FF480316068E3E7092DA3D288
:1018B000DFE805F0060918051E05050520009BE771
:1018C000FFF786F816E0FFF795F813E080B2A0F175
:1018D0001001414590D82168C86026663846666682
:1018E000BDE8F081606803EB5001B1FBF0F0EDE77B
:1018F000FFF792F8616800EB5100B0FBF1F0E5E70B
:1019000000800040F369FFEF003801400010024002
:1019100000440040004800400024F400FFFC0F0099
:10192000000024F40048E8012DE9F0479A461746E4
:101930000E4604464FF000094FF02008089D39E09C
:10194000681C37D0FEF792FDA0EB0A00A84222D80F
:101950000DB32068016849072CD5C069C043000554
:1019600028D421684FF4006008622068016821F4DF
:10197000D07101602068816821F001018160C4F8A4
:101980007480C4F87880C4F87C8000BF84F87090BC
:101990000320BDE8F0872068016821F4D071016060
:1019A0002068816821F001018160C4F87480C4F866
:1019B0007880EBE72068C06936EA000004D0002098
:1019C000B842BDD00020E4E70120F9E7FEE70907AF
:1019D000090E002804DB00F1E02080F800147047B5
:1019E00000F00F0000F1E02080F8141D704702E0C5
:1019F00008C8121F08C1002AFAD17047704700209A
:101A000001E001C1121F002AFBD17047BEB0FEF7F2
:101A10003BFDFFF782FD1748C16C41F00401C16432
:101A2000C16C01F004013C91C16C41F00101C16441
:101A3000C06C00F001003C90FFF77CFCFFF764FCF9
:101A40004FF4FA642346782269460B48FFF786FB79
:101A500038B123460A2209A107488038FFF7F8FB6E
:101A6000F0E7782269461EA8FEF7E0FBC82318229B
:101A70001EA9F1E7001002409000002032323232FD
:101A8000000000000000000000000000010203044C
:101A900006070809A0860100400D0300801A060011
:101AA00000350C0040420F0080841E0000093D00FC
:101AB00000127A000024F40000366E010048E801AC
:101AC000006CDC020000000001020304EC1A0008B4
:101AD0000000002010000000EE190008FC1A0008A9
:101AE0001000002000050000FE1900081000000092
:0C1AF000010000000000000000093D00A3
:040000050800018D61
:00000001FF
